S01000006275696C642F787A2E73726563E3
S113000000E8FF1F11040000B10E00009151000030
S1130010B1510000C1510000D1510000B10E0000E7
S1130020B10E0000B10E0000B10E0000F126000078
S1130030B10E0000B10E0000B10E0000D14000006E
S1130040D1380000B10E0000B10E0000B10E000066
S1130050B10E0000B10E0000B10E0000B10E0000A0
S1130060B10E0000B10E0000B10E0000B10E000090
S1130070B10E0000B10E0000B10E0000B10E000080
S1130080B10E0000B10E0000B10E0000B10E000070
S1130090B10E0000B10E0000B10E0000B10E000060
S11300A0613C0000813C0000B10E0000B10E000074
S11300B0B10E0000B10E000041360000B10E000088
S11300C0B10E0000B10E0000B10E0000B10E000030
S11300D0B10E0000B10E0000B10E0000B10E000020
S11300E0B10E0000B10E0000B10E0000B10E000010
S11300F0B10E0000B10E0000B10E0000B10E000000
S1130100B10E0000B10E0000B10E0000B10E0000EF
S1130110B10E0000B10E0000B10E0000B10E0000DF
S1130120B10E0000B10E0000B10E0000913E0000BF
S1130130013F0000713F0000E13F0000514000001A
S1130140B10E0000B10E0000B10E0000B10E0000AF
S1130150B10E0000B10E0000B10E0000B10E00009F
S1130160B10E0000B10E0000B10E0000B10E00008F
S1130170B10E0000B10E0000B10E0000B10E00007F
S1130400FFFFFFFFFFFFFFFFFFFFFFFF7EFFFFFF79
S113041072B6374880F3098836484EF60851CEF252
S11304200001086040F20000CCF200004EF6347186
S1130430CEF200010860BFF34F8FBFF36F8F40F21D
S11304400000C0F2F0004EF68851CEF200010860C0
S1130450BFF34F8FBFF36F8F4FF00000E1EE100A30
S11304604EF63C71CEF200010860062080F3148839
S1130470BFF36F8F00F0DCFC03F05AFE1E481F49E7
S11304801F4A91423CBF41F8040BFAE71D49184A40
S113049091423CBF41F8040BFAE71B491B4A1C4B31
S11304A09A423EBF51F8040B42F8040BF8E70020CF
S11304B01849194A91423CBF41F8040BFAE700F08D
S11304C0CFFC00F0BDFC154C154DAC4203DA54F8DA
S11304D0041B8847F9E704F0B3FD124C124DAC42FB
S11304E003DA54F8041B8847F9E700F0B1BC0000B4
S11304F000F0FF1F000000005555555500E0FF1F98
S113050000E8FF1F00E8FF1F787F000000F0FF1FD6
S1130510A4F0FF1FA8F0FF1F8405002010040000B2
S1130520100400001004000010040000000000008B
S11305302DE9F04F2DED108AC1F80CD0C3689D460B
S1130540BDEC108ABDE8F08F00F082FD01F0B8FB2D
S1130550002383F311882846A047002001F0F8F90E
S113056001F0A6FB00F064FD01F00AF800F070FD54
S113057001F0A6FB00DFFEE7000000000000000021
S113058081F0004102E000BF83F0004330B54FEA40
S113059041044FEA430594EA050F08BF90EA020FAD
S11305A01FBF54EA000C55EA020C7FEA645C7FEA40
S11305B0655C00F0E2804FEA5454D4EB5555B8BF63
S11305C06D420CDD2C4480EA020281EA030382EAD4
S11305D0000083EA010180EA020281EA0303362D66
S11305E088BF30BD11F0004F4FEA01314FF4801C39
S11305F04CEA113102D0404261EB410113F0004F4B
S11306004FEA03334CEA133302D0524263EB430301
S113061094EA050F00F0A780A4F10104D5F1200E9F
S11306200DDB02FA0EFC22FA05F2801841F10001FA
S113063003FA0EF2801843FA05F359410EE0A5F1CE
S113064020050EF1200E012A03FA0EFC28BF4CF0FF
S1130650020C43FA05F3C01851EBE37101F00045B5
S113066007D54FF0000EDCF1000C7EEB00006EEBC2
S11306700101B1F5801F1BD3B1F5001F0CD349084C
S11306805FEA30004FEA3C0C04F101044FEA4452A3
S113069012F5800F80F09A80BCF1004F08BF5FEA2A
S11306A0500C50F1000041EB045141EA050130BD0A
S11306B05FEA4C0C404141EB010111F4801FA4F1AD
S11306C00104E9D191F0000F04BF01460020B1FA02
S11306D081F308BF2033A3F10B03B3F120020CDA3A
S11306E00C3208DD02F1140CC2F10C0201FA0CF018
S11306F021FA02F10CE002F11402D8BFC2F1200C7D
S113070001FA02F120FA0CFCDCBF41EA0C01904032
S1130710E41AA2BF01EB0451294330BD6FEA04047B
S11307201F3C1CDA0C340EDC04F11404C4F1200266
S113073020FA04F001FA02F340EA030021FA04F378
S113074045EA030130BDC4F10C04C4F1200220FACF
S113075002F001FA04F340EA0300294630BD21FA0D
S113076004F0294630BD94F0000F83F4801306BFD3
S113077081F480110134013D4EE77FEA645C18BFC7
S11307807FEA655C29D094EA050F08BF90EA020F5E
S113079005D054EA000C04BF1946104630BD91EA56
S11307A0030F1EBF0021002030BD5FEA545C05D159
S11307B04000494128BF41F0004130BD14F5800498
S11307C03CBF01F5801130BD01F0004545F0FE410C
S11307D041F470014FF0000030BD7FEA645C1ABF41
S11307E0194610467FEA655C1CBF0B46024650EA78
S11307F0013406BF52EA033591EA030F41F40021A4
S113080030BD00BF90F0000F04BF0021704730B529
S11308104FF4806404F132044FF000054FF00001FE
S113082050E700BF90F0000F04BF0021704730B5BF
S11308304FF4806404F1320410F0004548BF404294
S11308404FF000013EE700BF42004FEAE2014FEAE9
S113085031014FEA02701FBF12F07F4393F07F4FC4
S113086081F06051704792F0000F14BF93F07F4FF6
S1130870704730B54FF4607401F0004521F0004139
S113088020E700BF50EA010208BF704730B54FF0BF
S113089000050AE050EA010208BF704730B511F0C4
S11308A0004502D5404261EB41014FF4806404F1FC
S11308B032045FEA915C3FF4DCAE4FF003025FEA7E
S11308C0DC0C18BF03325FEADC0C18BF033202EB06
S11308D0DC02C2F1200300FA03FC20FA02F001FA60
S11308E003FE40EA0E0021FA02F11444C1E600BFFF
S11308F070B54FF0FF0C4CF4E06C1CEA11541DBFB2
S11309001CEA135594EA0C0F95EA0C0F00F0DEF87C
S11309102C4481EA030621EA4C5123EA4C5350EA61
S1130920013518BF52EA033541F4801143F48013B2
S113093038D0A0FB02CE4FF00005E1FB02E506F043
S11309400042E0FB03E54FF00006E1FB03569CF098
S1130950000F18BF4EF0010EA4F1FF04B6F5007F9E
S113096064F5407404D25FEA4E0E6D4146EB060610
S113097042EAC62141EA55514FEAC52040EA5E5099
S11309804FEACE2EB4F1FD0C88BFBCF5E06F1ED843
S1130990BEF1004F08BF5FEA500E50F1000041EB7A
S11309A0045170BD06F0004646EA010140EA020027
S11309B081EA0301B4EB5C04C2BFD4EB0C0541EA49
S11309C0045170BD41F480114FF0000E013C00F35E
S11309D0AB8014F1360FDEBF002001F0004170BD82
S11309E0C4F10004203C35DA0C341BDC04F114049B
S11309F0C4F1200500FA05F320FA04F001FA05F227
S1130A0040EA020001F0004221F0004110EBD370F3
S1130A1021FA04F642EB06015EEA430E08BF20EA1F
S1130A20D37070BDC4F10C04C4F1200500FA04F3C2
S1130A3020FA05F001FA04F240EA020001F0004154
S1130A4010EBD37041F100015EEA430E08BF20EAC7
S1130A50D37070BDC4F1200500FA05F24EEA020E0F
S1130A6020FA04F301FA05F243EA020321FA04F03E
S1130A7001F0004121FA04F220EA020000EBD370F5
S1130A805EEA430E08BF20EAD37070BD94F0000FF5
S1130A900FD101F00046400041EB010111F4801F29
S1130AA008BF013CF7D041EA060195F0000F18BFDA
S1130AB0704703F00046520043EB030313F4801F16
S1130AC008BF013DF7D043EA0603704794EA0C0FD0
S1130AD00CEA135518BF95EA0C0F0CD050EA4106E6
S1130AE018BF52EA4306D1D181EA030101F0004163
S1130AF04FF0000070BD50EA410606BF104619468B
S1130B0052EA430619D094EA0C0F02D150EA013696
S1130B1013D195EA0C0F05D152EA03361CBF1046D7
S1130B2019460AD181EA030101F0004141F0FE4176
S1130B3041F470014FF0000070BD41F0FE4141F4FA
S1130B40780170BD70B54FF0FF0C4CF4E06C1CEAFA
S1130B5011541DBF1CEA135594EA0C0F95EA0C0FAF
S1130B6000F0A7F8A4EB050481EA030E52EA03356A
S1130B704FEA013100F088804FEA03334FF080558B
S1130B8045EA131343EA12634FEA022245EA1115B8
S1130B9045EA10654FEA00260EF000419D4208BF69
S1130BA0964244F1FD0404F5407402D25B084FEA16
S1130BB03202B61A65EB03055B084FEA32024FF4C2
S1130BC080104FF4002CB6EB020E75EB030E22BF1F
S1130BD0B61A754640EA0C005B084FEA3202B6EBDF
S1130BE0020E75EB030E22BFB61A754640EA5C008E
S1130BF05B084FEA3202B6EB020E75EB030E22BF1E
S1130C00B61A754640EA9C005B084FEA3202B6EB1E
S1130C10020E75EB030E22BFB61A754640EADC00DD
S1130C2055EA060E18D04FEA051545EA16754FEA3F
S1130C3006164FEAC30343EA52734FEAC2025FEA5D
S1130C401C1CC0D111F4801F0BD141EA00014FF0EC
S1130C5000004FF0004CB6E711F4801F04BF0143BD
S1130C600020B4F1FD0C88BFBCF5E06F3FF6AFAED9
S1130C70B5EB030C04BFB6EB020C5FEA500C50F169
S1130C80000041EB045170BD0EF0004E4EEA1131EC
S1130C9014EB5C04C2BFD4EB0C0541EA045170BDF3
S1130CA041F480114FF0000E013C90E645EA060E37
S1130CB08DE60CEA135594EA0C0F08BF95EA0C0F65
S1130CC03FF43BAF94EA0C0F0AD150EA01347FF4AD
S1130CD034AF95EA0C0F7FF425AF104619462CE784
S1130CE095EA0C0F06D152EA03353FF4FDAE1046E7
S1130CF0194622E750EA410618BF52EA43067FF438
S1130D00C5AE50EA41047FF40DAF52EA43057FF4C7
S1130D10EBAE12E70000000000000000000000003D
S1130D204FEA410212F5001215D211D56FF478730F
S1130D30B3EB625212D94FEAC12343F0004343EAB2
S1130D40505311F0004F23FA02F018BF404270478D
S1130D504FF00000704750EA013005D111F0004017
S1130D6008BF6FF0004070474FF00000704700BFAD
S1130D704FEA4102B2F1E04324BFB3F5001CDCF1B9
S1130D80FE5C0DD901F0004C4FEAC0024CEA5070F1
S1130D90B2F1004F40EB830008BF20F00100704720
S1130DA011F0804F21D113F13872BCBF01F0004023
S1130DB0704741F480114FEA5252C2F11802C2F155
S1130DC0200C10FA0CF320FA02F018BF40F00100D6
S1130DD04FEAC1234FEAD32303FA0CFC40EA0C0088
S1130DE023FA02F34FEA4303CCE77FEA625307D1C5
S1130DF050EA01331EBF4FF0FE4040F440007047FC
S1130E0001F0004040F0FE4040F40000704700BF95
S1130E1010F8012B11F8013B012A28BF9A42F7D0A0
S1130E20D01A70470000000000000000000000001D
S1130E30704700BFAFF30080AFF30080AFF30080D2
S1130E40704700BFAFF30080AFF30080AFF30080C2
S1130E50FEE700BFAFF30080AFF30080AFF3008084
S1130E60F0B4114E002506F1800796E81A00A3425B
S1130E700DD204391A4651F8040F42F8040BA24269
S1130E80F9D3DA43144424F0030404342344F26809
S1130E90934203D243F8045B9342FBD31036BE4221
S1130EA0E3D3F0BC704700BFD0680000AFF300800C
S1130EB0FEE700BFAFF30080AFF30080AFF3008024
S1130EC0FEE700BFAFF30080AFF30080AFF3008014
S1130ED0F8B5204C204E002500F0BAF900F050F986
S1130EE02563656300F064FE01F00AFA01F078FA04
S1130EF000F09EFE04F138001849802200F070FBD7
S1130F00174B1849012280F82020DF68164AC16176
S1130F104FF6FF0139400A43DA60F2681349A061D1
S1130F2042F08072F2600A68102642F00102202426
S1130F300A604830DE7783F8224000F009FE00F0B2
S1130F4067F885F3118862B60948BDE8F84000F0F7
S1130F50BFBB00BF28F2FF1FF0ED00E0506B0000A4
S1130F6000ED00E000E8FF1F0003FA05001000E0B8
S1130F7050690000AFF30080AFF30080AFF300804E
S1130F8072B6014BD862FEE728F2FF1FAFF3008070
S1130F902DE9F843194E00F0D3F8B26992F82330E2
S1130FA013B1013B82F8233000F0CAF8144FB36A3E
S1130FB0F4690133BC42B3621DD0A568013DA5604C
S1130FC0CDB94FF020092368D4F80C80E5605F6048
S1130FD0F36100F06DF800F083FE85F31188206959
S1130FE0C04789F3118800F073FE00F049F8F469F2
S1130FF0A368002BE7D0BDE8F88300BF28F2FF1FE9
S113100044F2FF1FAFF30080AFF30080AFF3008022
S1131010044B1A6B0AB95B6B13B10348FFF7B0BFFB
S1131020704700BF28F2FF1F90690000AFF30080F3
S113103010B5054C236B0BB9636B13B10348FFF771
S11310409FFF0123636310BD28F2FF1F986900000E
S113105010B5074C236B2BB9636B002B02DD002307
S1131060636310BD0348FFF78BFF0023636310BD68
S113107028F2FF1FA0690000AFF30080AFF30080E7
S113108010B5064C236B002B01DD636B13B10448D0
S1131090FFF776FF0123636310BD00BF28F2FF1F33
S11310A0A8690000AFF30080AFF30080AFF30080C5
S11310B010B5084C236B002B05DD636B002B02DDA0
S11310C00023636310BD0448FFF75AFF00236363E2
S11310D010BD00BF28F2FF1FB0690000AFF300800D
S11310E010B5202383F31188074C236B002B01DBFD
S11310F0626B1AB10548FFF743FF236B0133236387
S1131100002383F3118810BD28F2FF1FB869000083
S113111010B5202383F31188074C236B002B01DDCA
S1131120626B1AB10548FFF72BFF236B013B236366
S1131130002383F3118810BD28F2FF1FC06900004B
S1131140054B1A6B002A03DB5B6B002B00DD704739
S11311500248FFF715BF00BF28F2FF1FC86900004F
S1131160044B1A6B1AB95B6B002B00DD7047024805
S1131170FFF706BF28F2FF1FD0690000AFF300801D
S1131180054B4FF0FF3003F11C02002158629962B5
S1131190DA611A62704700BF28F2FF1FAFF30080C4
S11311A0F8B505460C4616461F46FFF7C9FFD5B1EC
S11311B0CEB1C4B10E482F61C369EE609A689442FF
S11311C004D91B68A41A9A68A242FAD35A686A60BE
S11311D02B6015605D60AC6099684FF0FF32091BAD
S11311E099604262F8BD0348FFF7CAFEE2E700BF18
S11311F028F2FF1FE0690000AFF30080AFF3008026
S113120038B50446FFF79CFFACB1E3687BB12368B3
S1131210A2689D6861680A482A449A600B60256840
S113122000224FF0FF336960E260436238BD054835
S1131230FFF7A6FEEBE70348FFF7A2FEE5E700BFD2
S113124028F2FF1FF0690000AFF30080AFF30080C5
S1131250034B00221B605B601B615B619A607047FB
S113126028F2FF1FAFF30080AFF30080AFF30080DC
S113127010B50446FFF764FFC4B194F820308BB175
S11312800F2B0FD00022A1680A4B84F820201B6882
S11312909A688A42FBD25A686260236020461460CE
S11312A05C6010BD0448FFF76BFEEBE70248FFF7F4
S11312B067FEE2E728F2FF1F106A0000AFF3008028
S11312C038B50446202383F3118800F001FDFFF7AD
S11312D0D7FE94F82030072B10D8DFE803F0150F61
S11312E00F1D0A040F0A656AFFF72AFFAB68013372
S11312F0AB6094E80C001A60226853604FF0FF332F
S113130063622046FFF7B4FFFFF7D2FE00F0E8FC6B
S1131310002383F3118838BD636A00221A604FF0FA
S1131320FF3363622046FFF7A3FFEDE7AFF30080CE
S113133010B50446FFF704FFC4B194F820308BB114
S11313400F2B0FD00022A1680A4B84F820201B68C1
S11313509A688A42FBD85A68626023602046146007
S11313605C6010BD0448FFF70BFEEBE70248FFF793
S113137007FEE2E728F2FF1F306A0000AFF30080A7
S113138070B5124C0646A569FFF7EAFE236885F896
S113139020601A6822601421012685F8231018465B
S11313A05460294683F82060A36100F069FCEFF3E0
S11313B00983EA69643B9A4202D90548FFF7E0FDD4
S11313C0A0692946BDE87040FFF7B2B828F2FF1FB4
S11313D0206A0000AFF30080AFF30080AFF3008019
S11313E070B50C4686B00646FFF7BAFE631C14D0EF
S11313F00E4D0F4AAB69214601A8FFF7D1FE3046D6
S1131400FFF7BEFFFFF79CFE049B13B101A8FFF793
S1131410F7FEAB69586A06B070BD044D3046FFF75D
S1131420AFFFAB69586A06B070BD00BF28F2FF1F5A
S1131430C1120000AFF30080AFF30080AFF300806F
S1131440F8B51E4D04460F46AE69FFF789FE2B68BA
S1131450AB4204D0AA699B6892689A4221D3B368CC
S1131460A26867629A4217D93046FFF701FF012349
S11314700146064684F820302046AC6100F000FCAA
S1131480EFF30983F269643B9A420ED82046314651
S1131490BDE8F840FFF74CB82046BDE8F840FFF738
S11314A0E7BE0748FFF76CFDD9E70648FFF768FD7C
S11314B020463146BDE8F840FFF73AB828F2FF1F4E
S11314C0006A0000206A0000AFF30080AFF30080E0
S11314D0084B9A691B6892F823109B68906821B99D
S11314E0834234BF002001207047834294BF002010
S11314F00120704728F2FF1FAFF30080AFF3008094
S113150038B5104C2368A0691A6822600121546020
S113151083F82010A361FFF70BFF01460546A0697D
S113152000F0AEFBEFF30983EA69643B9A4202D907
S11315300548FFF725FDA0692946BDE83840FEF7B8
S1131540F7BF00BF28F2FF1F206A0000AFF300803E
S113155008B5FFF705FEFFF7F3FD064B1A689B6914
S113156092689B689A4200D808BDBDE80840FFF71E
S1131570C7BF00BF28F2FF1FAFF30080AFF30080A6
S113158038B5154C2368A0691A6893F823102260B3
S113159001255460A36183F82050C1B9FFF768FEA8
S11315A01423054680F82330A069294600F068FB1F
S11315B0EFF30983EA69643B9A4202D90748FFF7CB
S11315C0DFFCA0692946BDE83840FEF7B1BFFFF74C
S11315D0AFFE0546E8E700BF28F2FF1F206A0000BF
S11315E0F8B5134B816104465E69666100214FF0D2
S11315F0020C4FF0140E04F12C05012004F128070D
S1131600A26084F822002361E26384F820C084F895
S113161023E084F82110A163616304F1480034617C
S1131620A762E56225635C6100F082FA2046F8BD9A
S113163028F2FF1FAFF30080AFF30080AFF3008008
S1131640884203D200F8012B8842FBD1704700BFC7
S113165070B50446FFF774FD84B36368580702D17C
S1131660A26851071DD01748FFF78AFCE268FF2AD9
S11316701ED82369E3B1A06866686169124D40F819
S1131680446CA0F1C40640F8546C40F8801C40F847
S1131690843C216840F8645C6038BDE87040FFF722
S11316A09FBF9342DFD2D31AB3F5B87FDED2DAE715
S11316B00448FFF765FC2369E268DCE70148FFF7AB
S11316C05FFCCAE7206B000049050000AFF300800F
S11316D010B50446406800F073FB10B11748FFF7DB
S11316E04FFC6368A268934238BF552103D203F8C4
S11316F0011B9342FBD1202383F3118800F0D8FA15
S1131700FFF796FC2046FFF7A3FF00210446FFF7EE
S113171097FEFFF79DFC00F0D3FA094B1A689A4232
S113172007D0996993688A689A4202D20548FFF7FC
S113173027FC002383F31188204610BD406B000072
S113174028F2FF1F706A0000AFF30080AFF300803F
S11317502DE9F047884691469A46074608B1430763
S113176048D02A48FFF70CFC384600F029FB10B19A
S11317702648FFF705FC07EB0805AF4205D23C46B7
S1131780552604F8016BAC42FBD1202383F3118866
S113179000F08EFAFFF74CFCA8F1600139441C4BB1
S11317A0089A41F8043CA1F1640041F8202CC86077
S11317B04A46CF6141F824AC08461649FFF710FFAA
S11317C000210446FFF73CFEFFF742FC00F078FAE4
S11317D0114B1A689A4207D0996993688A689A42A9
S11317E002D20E48FFF7CCFB002383F31188204676
S11317F0BDE8F087B1F5B87FB3D311F0070FB0D1CE
S1131800FF2AAED8BAF1000FAED1AAE7506A0000A1
S113181049050000E06A000028F2FF1F706A00001A
S113182010B52023044683F3118800F041FAFFF732
S1131830FFFB94F82230FBB1013B84F82230236A89
S113184003F0FF130F2B1DD0FFF702FC00F038FA52
S1131850234B1A689A4204D0996993688A689A4219
S113186003D3002383F3118810BD1E48FFF788FBC0
S1131870002383F3118810BD1B48FFF781FB94F804
S11318802230D9E7636922691A6122695361FFF73B
S1131890DFFB00F015FA124B1A689A4204D09969DA
S11318A093688A689A420BD3002383F3118894F8CF
S11318B0213003F00303012B06D0022B09D010BD05
S11318C00848FFF75DFBEFE7E069BDE8104000F072
S11318D027BE206CE169BDE8104000F0E1BE00BF06
S11318E028F2FF1F706A0000806A0000AFF30080D6
S11318F038B5124B9C69A36A606204F128059D42C5
S113190007D01A68A2621846FFF7B2FCA36AAB427A
S1131910F7D194F8223043B994F821309B0704D1CD
S1131920636922691A61226953610F20FFF728FD58
S11319300348BDE83840FFF723BB00BF28F2FF1F70
S1131940F06A0000AFF30080AFF30080AFF30080D3
S113195010B52023044683F3118800F0A9F9FFF79A
S113196067FB2046BDE81040FFF7C2BFAFF300801D
S113197070B50446002839D0202383F311881D4D07
S113198000F096F9FFF754FBAB69A3422AD094F810
S113199022301BB394F820300F2B06D0AB69A26A17
S11319A01A600920A362FFF7EBFC666AFFF750FB9D
S11319B000F086F92B680F4AAB4207D092699B6806
S11319C092689A4202D20C48FFF7DAFA002383F3B2
S11319D011882046FFF724FF304670BD0748FFF703
S11319E0CFFAD7E70548FFF7CBFAD0E70348FFF76C
S11319F0C7FAC1E728F2FF1F706A0000106B0000ED
S1131A0010B52023044683F3118800F051F9FFF741
S1131A100FFB14B90D48FFF7B3FA21460820FFF76E
S1131A20DFFCFFF715FB00F04BF9094B1A689A42EB
S1131A3007D0996993688A689A4202D20548FFF7E9
S1131A409FFA002383F3118810BD00BF006B0000D0
S1131A5028F2FF1F706A0000AFF30080AFF300802C
S1131A600A4A036870B5044696690D4613B10848DE
S1131A70FFF786FA3DB12660746229460320BDE86B
S1131A807040FFF7ADBC4FF0FF3070BD28F2FF1F70
S1131A90906A0000AFF30080AFF30080AFF30080E2
S1131AA070B5046884B194F82030032B0E460546C3
S1131AB002D00648FFF764FA00232B6066622046D2
S1131AC0BDE87040FFF7D4BB70BD00BFB06A000032
S1131AD069B1084B10B4024644689B69042083E84A
S1131AE01400236053605DF8044BFFF779BC4FF09A
S1131AF0FF30704728F2FF1FAFF30080AFF3008080
S1131B0038B50468A04210D0226802600D4694F8EB
S1131B1020105060042902D00448FFF731FA6562AE
S1131B202046BDE83840FFF7A3BB38BDC06A0000BB
S1131B3000220023C0E9042300234FF0FF3280E891
S1131B400C008360C3607047AFF30080AFF3008084
S1131B50014B5B6883607047001000E0AFF30080C6
S1131B600F4B10495A688368F0B4D1F898704168F3
S1131B70C668D0E90445D31ADB1BE4180268836005
S1131B8045F100058B4206F1010688BF436093428C
S1131B90C660C0E9044538BF0360F0BC704700BFAD
S1131BA0001000E028F2FF1FAFF30080AFF30080C5
S1131BB0D0B50D4C86B000234FF0FF3268460026A6
S1131BC00027C4F898300193029303930092CDE95F
S1131BD00467FFF7BDFF6846FFF7C2FF029BC4F826
S1131BE0983006B0D0BD00BF28F2FF1FAFF30080CD
S1131BF00D4B42685B6870B48B608668C168D0E93D
S1131C0004459B1BE41845F100059342026888BF14
S1131C10436001319342C0E90445C160836038BF29
S1131C20036070BC704700BF001000E0AFF3008099
S1131C3010B5084C002304F1A800C4F8A030C4F87F
S1131C40A430FFF775FF04F1C000BDE81040FFF7B2
S1131C506FBF00BF28F2FF1FAFF30080AFF3008017
S1131C60202383F31188054AD2F8A0300133C2F847
S1131C70A030002383F31188704700BF28F2FF1FB0
S1131C80074AD2F8A43010B400F14804013301F13A
S1131C90480021465DF8044BC2F8A430FFF7A8BF02
S1131CA028F2FF1FAFF30080AFF30080AFF3008092
S1131CB00148FFF74DBF00BFD0F2FF1FAFF3008014
S1131CC00148FFF74DBF00BFD0F2FF1FAFF3008004
S1131CD00148FFF73DBF00BFE8F2FF1FAFF30080EC
S1131CE00148FFF73DBF00BFE8F2FF1FAFF30080DC
S1131CF038B5202383F311880F4CFFF7D9FFFFF782
S1131D0097F9256995F82230013385F82230FFF7D9
S1131D109FF9FFF7D5FF2368A34207D0A2699B6808
S1131D2092689A4202D20548FFF72AF9002383F306
S1131D301188284638BD00BF28F2FF1F806B0000C1
S1131D4070B52023064683F31188FFF7B1FF164DC3
S1131D50FFF76EF93469AC4224D094F82230FF2B9B
S1131D601AD0013384F82230FFF772F9FFF7A8FF85
S1131D702B680D4AAB4207D092699B6892689A42DD
S1131D8002D20A48FFF7FCF8002383F31188304697
S1131D90FFF746FD204670BD0548FFF7F1F894F8BB
S1131DA02230DEE70024DFE728F2FF1F806B00000B
S1131DB0706B0000AFF30080AFF30080AFF30080DE
S1131DC010B50446FFF794FF034603E0FFF7B8FF9E
S1131DD0034618B1DA69A2421846F7D1184610BD75
S1131DE010B5044620B1002324606460A36010BDD4
S1131DF00148FFF7C5F8F6E7B06B0000AFF30080C9
S1131E003B4B70B505469C69FFF7AAF9002D6BD0D2
S1131E10A868002836D0A26883689A4207D990F847
S1131E2020308260062B46D0072B30D0FBB12B46E6
S1131E3003E09968A268914202D31B689D42F8D1DD
S1131E405A6862602360062014605C606562FFF774
S1131E5097FAAB68A34202D02648FFF791F8A36B28
S1131E60AB4213D02348BDE87040FFF789B890E82F
S1131E700C00012180F820101A6002685360FFF7FB
S1131E80F7F9D4E7A36BEB60AC60A56370BD90E891
S1131E900A001960466A01684B60334602E099689B
S1131EA0914202D31B689E42F9D15A684260036092
S1131EB010605860BBE790E80A001960466A016840
S1131EC04B60334602E09968914202D31B689E42FC
S1131ED0F9D15A684260036010605860B068A26823
S1131EE0836893429BD3A2E70248FFF749F88FE740
S1131EF028F2FF1FC06B0000AFF30080AFF3008037
S1131F0010B52023044683F31188FFF7D1FEFFF7B1
S1131F108FF82046FFF774FFFFF79AF8FFF7D0FE1B
S1131F20074B1A689A4207D0996993688A689A425B
S1131F3002D20448FFF724F8002383F3118810BD6C
S1131F4028F2FF1FA06B0000AFF30080AFF3008006
S1131F502DE9F041DFF8C8800646D8F8187000284B
S1131F6052D0202383F31188FFF7A2FEFFF760F815
S1131F70BB6B002B4CD09A68BA4203D02748FEF7BB
S1131F80FFFFBB6B9E4202D02448FEF7F9FFF368C3
S1131F90BB63FFF7E5F833689E4232D0BC6BFD6B40
S1131FA064B1FFF7DDF823689C4203D09B689D422F
S1131FB038BF1D46E468002CF3D133681A68996B66
S1131FC0BD60184632605660B360F1609E63FFF7EF
S1131FD04FF9FFF7BDFAFFF73BF8FFF771FED8F8AA
S1131FE000300F4A434507D092699B6892689A4231
S1131FF002D20C48FEF7C4FF002383F31188BDE826
S1132000F0810023B360E6E70448FEF7B9FFA8E7D0
S11320100248FEF7B5FFBB6BADE700BF906B000055
S113202028F2FF1FA06B0000AFF30080AFF3008025
S11320302DE9F0410C4690461F46064630B329B3BD
S1132040202383F31188134DFFF732FEFEF7F0FFD0
S1132050AB6932682260002134606360E160C4F8D7
S113206008802761FEF7F4FFFFF72AFE2B68AB42D6
S113207007D0AA699B6892689A4202D20648FEF782
S11320807FFF002383F31188BDE8F0810348FEF746
S113209077FFD5E728F2FF1FD06B0000006C00002B
S11320A038B50D46044630B329B3202383F3118891
S11320B0FFF7FEFDFEF7BCFF224602E09D4217D06B
S11320C01A461368A342F9D1FEF7C2FFFFF7F8FDE1
S11320D00B4B1A689A4207D0996993688A689A42A6
S11320E002D20848FEF74CFF002383F3118838BD61
S11320F02B681360E8E70448FEF742FFD5E700BF0A
S113210028F2FF1FD06B0000206C0000AFF30080AA
S113211038B504460D46FFF713F8CCB1636B94F859
S1132120202045EA03010A2A61630DD00B2A00D05E
S113213038BD636A19408B42FAD10023636220469A
S1132140BDE83840FFF794B8636A1942F5D138BD49
S11321500148FEF715FFE1E7E06B0000AFF30080F4
S113216070B506460D46FEF7EBFF8EB13468A64205
S11321700DD0E3682B43E36015B12269134203D009
S11321806068A168FFF7C4FF2468A642F1D170BD5E
S11321900148FEF7F5FEE9E7306C0000AFF300807C
S11321A02DE9F0410E460546E8B1AEB100244FF0EA
S11321B0010808FA04F737420BD02B6873B12046A4
S11321C026EA0706043598470134002EF1D1BDE80C
S11321D0F08101340435ECE7BDE8F0810448FEF7F2
S11321E0CFFE2B68EBE70248FEF7CAFEDDE700BF2F
S11321F0F06B0000AFF30080AFF30080AFF300801A
S113220070B5174D0446AE69202383F31188FFF798
S11322104FFDFEF70DFF736B14EA030206D17462DF
S11322200A20FFF7ADF8736B04EA0302544214402A
S113223023EA04037363FEF70BFFFFF741FD2B68EA
S1132240074AAB4207D092699B6892689A4202D2CD
S11322500448FEF795FE002383F31188204670BDE1
S113226028F2FF1FD06B0000AFF30080AFF30080B3
S1132270F0B5174687B008221E460D4600F0C0F898
S113228088B305440C9B049329460D9B0593552262
S11322900295009701900396FFF7D2F9202383F368
S11322A01188FFF705FDFEF7C3FE6846FFF7D0F976
S11322B0012380F8213000210446FFF7C1F8FEF71E
S11322C0C7FEFFF7FDFC094B1A689A4207D09969CB
S11322D093688A689A4202D20548FEF751FE0023A9
S11322E083F31188204607B0F0BD00BF28F2FF1F1A
S11322F0506C0000AFF30080AFF30080AFF30080B8
S11323000349044B0448054A08601A60704700BF3B
S113231004F3FF1F00F3FF1F880500200040002086
S113232070B50C460546FEF70BFF14B1631E23423D
S113233002D00A48FEF724FE094E0A4A336812689E
S1132340013B61421819013D08402C440C40131A0A
S11323509C429ABF24183460002070BD706C000049
S113236004F3FF1F00F3FF1FAFF30080AFF30080FF
S113237038B505460C46202383F31188FFF798FCF3
S1132380FEF756FE21462846FFF7CAFF0446FEF72D
S11323905FFEFFF795FC084B1A689A4207D09969CB
S11323A093688A689A4202D20448FEF7E9FD002342
S11323B083F31188204638BD28F2FF1F606C0000AB
S11323C0024A034B10681B68C01A704700F3FF1FD2
S11323D004F3FF1FAFF30080AFF30080AFF300807E
S11323E0044B054A1A6003F1100000229A60DA6077
S11323F0FFF7F6BC08F3FF1F71230000AFF3008062
S11324002DE9F84F814690460F4609B1002A45D17F
S11324104048FEF7B5FD404BB9F1000F08BF99469F
S113242009F1100BB8F1070F98BF4FF00808584690
S113243007F1070AFFF764FD4FEADA0A09F1080217
S1132440C8F100011468E31D43440B40083BE61A3D
S113245004F1080C74B16068451CED00A5F1080E88
S113246025447644AB424FEAE60601D2B24519D977
S11324702246E7E75846FFF76BFDD9F80030002BFA
S113248045D00AF10100C0004146984700283ED0DB
S1132490C0F8009047600830BDE8F88F531E13421F
S11324A0B9D0B5E7A3421946654614D9CCEB03026B
S11324B0D210B24562600BD20AF1010003EBC002F4
S11324C06FEA0A0A25685644566043F83050226081
S11324D003F108050EE0824515D00AF1010A04EB68
S11324E0CA00AEEBCA03216844F83A10DB1043601B
S11324F02146106058464F60C1F80090FFF728FD50
S11325002846BDE8F88F236813602146F2E70020CF
S1132510BDE8F88FA06C000008F3FF1FAFF3008044
S11325202DE9F041804698B310F0070F30D158F8E8
S1132530043C58F8086C0733DB0806F1100748F828
S1132540043C3846FFF7DCFC08363446A8F108059D
S1132550AC4205D86368013304EBC3039D420CD33A
S1132560B4420FD0AC420DD32468AC42F8D86368AF
S1132570013304EBC3039D42F2D22048FEF700FD71
S1132580B442EFD123683BB19D4205D31C46DFE73B
S11325901A48FEF7F5FCCAE758F8042C48F8083C3A
S11325A02560531C58F8080C05EBC30181420AD07E
S11325B06268531C04EBC3039D4213D03846BDE844
S11325C0F041FFF7C5BC496855F8333048F8083C7A
S11325D05318013348F8043C6268531C04EBC303EA
S11325E09D42EBD118E90A00134401332160636072
S11325F03846BDE8F041FFF7ABBC00BF906C00006B
S1132600174B2DE9F047002814BF04461C4604F17B
S11326101008002540468A4691462E46FFF770FC76
S11326202F4604F1080306E05C68A54207F10107A0
S1132630264438BF25461B68002BF5D1BAF1000F9C
S113264002D0F600CAF80060B9F1000F02D0ED0024
S1132650C9F800504046FFF77BFC3846BDE8F087D8
S113266008F3FF1FAFF30080AFF30080AFF30080E7
S113267038B504460D46FEF763FD24B11DB1236849
S11326802B60256038BD0348FEF77AFC23682B6075
S1132690256038BDD06C0000AFF30080AFF300803C
S11326A038B505460C46202383F31188FFF700FB59
S11326B0FEF7BEFC28462146FFF7DAFFFEF7C8FC0A
S11326C0FFF7FEFA074B1A689A4207D09969936894
S11326D08A689A4202D20448FEF752FC002383F32C
S11326E0118838BD28F2FF1FC06C0000AFF30080D2
S11326F0064A536823F001035360EFF309836833F8
S113270083F30988002383F31188704730EF00E0D6
S1132710202383F31188124B5B6813F4006302D106
S113272083F31188704710B5F1EE103AEFF3098482
S11327300C4B4FF08072DB6844F8083C44F84C2C96
S1132740A4F1680383F30988FEF7C2FE18B1064BAF
S113275044F8503C10BD054B44F8503C10BD00BF3C
S113276000ED00E030EF00E06105000074050000BA
S113277008B500F005FD084800F01AFF00F058FA0B
S113278000F066FA00F094FB00F0F2FB01F0D8FCD4
S1132790BDE8084000F004B8606E0000AFF30080AC
S11327A001F0B6BCAFF30080AFF30080AFF300805C
S11327B030B4029C046200250A4485600261006012
S11327C04060C16081614161C36130BC704700BF3A
S11327D038B504460D46FEF7B3FC6369A26993421B
S11327E011D0A268591C0132A26061611D70626936
S11327F023699A4201D3E368636120460021FFF70D
S11328007FF9002038BDA268002AEAD04FF0FF30DB
S113281038BD00BFAFF30080AFF30080AFF300809A
S113282070B5202304460E4683F31188FFF740FA5F
S1132830FEF7FEFB03E0FFF74BF9051E15DBA3686B
S113284020463146002BF6D0A169A36820694A1CB2
S1132850013B8242A360A26128BFE3680D7828BFD0
S1132860A361E3690BB120469847FEF7F1FBFFF73C
S113287027FA084B1A689A4207D0996993688A68BC
S11328809A4202D20448FEF77BFB002383F31188AB
S1132890284670BD28F2FF1FE06C0000AFF30080F3
S11328A02DE9F04F824683B00C469846D0F81C9030
S11328B01546002A78D0202383F31188454EFFF76C
S11328C0F7F9FEF7B5FBB36A434400270193B34617
S11328D0DAF80830002B3DD0DAF81820DAF808309E
S11328E0511C013BCAF81810CAF808301378237039
S11328F0DAF81030DAF818209A4224BFDAF80C30EB
S1132900CAF818300134B9F1000F01D05046C84755
S1132910FEF79EFBFFF7D4F93368B34208D0DBF827
S113292018209B6892689A4202D22B48FEF728FB33
S1132930002383F31188013D07F1010729D02023E7
S113294083F31188FFF7B4F9FEF772FBDAF8083065
S1132950002BC1D108F1FF3303331ED8B16A019AA9
S11329601C4B511A884523D35046FFF7B1F8002871
S1132970AED0FEF76DFBFFF7A3F93368154AB342F7
S113298004D092699B6892689A421FD3002383F310
S11329901188384603B0BDE8F08F50464146FFF732
S11329A097F8002894D0E4E70C48FEF7E9FA82E7A8
S11329B00193FEF74DFBFFF783F9019B1A689A42D6
S11329C0E4D0996993688A689A42DFD20248FEF794
S11329D0D7FADBE728F2FF1FE06C0000006D00006F
S11329E030B4029C04628D1805610060406082600E
S11329F0C16081614161C36130BC7047AFF3008045
S1132A00F8B504460F461646202383F31188FFF7D2
S1132A104FF9FEF70DFB03E0FFF75AF8051E26DB1E
S1132A20A36820463146002BF6D06269A368511C86
S1132A30013B6161A3601770236962699A4224BFF4
S1132A40E3686361E3690BB120469847FEF700FB36
S1132A50FFF736F9144B1A689A4204D099699368BF
S1132A608A689A4218D3002080F31188F8BDFEF7D3
S1132A70EFFAFFF725F90C4B1A689A4207D09969C7
S1132A8093688A689A4202D20848FEF779FA0023CA
S1132A9083F311882846F8BD0448FEF771FA002034
S1132AA080F31188F8BD00BF28F2FF1FE06C00001E
S1132AB038B50446FEF744FBA36962699A4210D014
S1132AC0A2682069591C0132A260A16181421D786B
S1132AD001D3E368A36120460021FFF711F82846DB
S1132AE038BDA268002AEBD04FF0FF3038BD00BFDC
S1132AF02DE9F04F824683B00C469846D0F81C90DE
S1132B001546002A78D0202383F31188454EFFF719
S1132B10CFF8FEF78DFAB36A434400270193B34616
S1132B20DAF80830002B3DD0DAF81420DAF808304F
S1132B30511C013BCAF81410CAF8083023781370EA
S1132B40DAF81030DAF814209A4224BFDAF80C309C
S1132B50CAF814300134B9F1000F01D05046C84707
S1132B60FEF776FAFFF7ACF83368B34208D0DBF827
S1132B7018209B6892689A4202D22B48FEF700FA0A
S1132B80002383F31188013D07F1010729D0202395
S1132B9083F31188FFF78CF8FEF74AFADAF8083065
S1132BA0002BC1D108F1FF3303331ED8B16A019A57
S1132BB01C4B511A884523D35046FEF789FF002841
S1132BC0AED0FEF745FAFFF77BF83368154AB342F7
S1132BD004D092699B6892689A421FD3002383F3BE
S1132BE01188384603B0BDE8F08F50464146FEF7E1
S1132BF06FFF002894D0E4E70C48FEF7C1F982E7A0
S1132C000193FEF725FAFFF75BF8019B1A689A42D5
S1132C10E4D0996993688A689A42DFD20248FEF741
S1132C20AFF9DBE728F2FF1FE06C0000F06C000056
S1132C3001F046BAAFF30080AFF30080AFF3008039
S1132C400122002380E80C00704700BFAFF300802E
S1132C5001F026B8AFF30080AFF30080AFF300803B
S1132C600122002380E80C000C30FFF7B9B800BF44
S1132C7038B50D46044650B349B323685A1E012A99
S1132C8004D9052B02D01448FEF77AF9202383F3E4
S1132C901188FFF70DF8FEF7CBF92046656001F0C7
S1132CA01FF802232360FEF7D3F9FFF709F80B4B53
S1132CB01A689A4207D0996993688A689A4202D23C
S1132CC00748FEF75DF9002383F3118838BD0248F5
S1132CD0FEF756F9D1E700BF406D000028F2FF1F50
S1132CE0106D0000AFF30080AFF30080AFF30080FD
S1132CF010B5044608B1A06810BD0248FEF740F9BB
S1132D00A06810BD506D0000AFF30080AFF30080E9
S1132D102DE9F04685B00E46924699460D9D04462F
S1132D2008B100293BD12448FEF72AF92368022B75
S1132D3002D02148FEF724F9202383F31188FEF7FB
S1132D40B7FF0027FEF774F9032020603146A7601F
S1132D500C9E01950E9D029552464B4620460096C8
S1132D6000F0F6FF431C0CBF052302232360054635
S1132D70FEF76EF9FEF7A4FF104B1A689A4207D0CB
S1132D80996993688A689A4202D20D48FEF7F8F866
S1132D90002383F31188284605B0BDE8F086002B94
S1132DA0C1D0002ABFD015B10C9B002BBBD00E9B09
S1132DB0002BBBD1B7E700BF606D000028F2FF1FF6
S1132DC0106D0000AFF30080AFF30080AFF300801C
S1132DD010B5044628B104F10C00BDE81040FFF71B
S1132DE08FB80448FEF7CCF804F10C00BDE810409D
S1132DF0FFF786B8206D0000AFF30080AFF30080CA
S1132E0010B5044628B104F10C00BDE81040FFF7EA
S1132E109FB80448FEF7B4F804F10C00BDE8104074
S1132E20FFF796B8306D0000AFF30080AFF3008079
S1132E300C30FFF735BD00BFAFF30080AFF3008067
S1132E400C304FF0FF33FFF72BBD00BFAFF3008012
S1132E503030FFF74DBE00BFAFF30080AFF300800A
S1132E6030304FF0FF33FFF743BE00BFAFF30080B5
S1132E700C30FFF7D5BC00BFAFF30080AFF3008088
S1132E800C304FF0FF31FFF7CBBC00BFAFF3008035
S1132E903030FFF7B5BD00BFAFF30080AFF3008063
S1132EA030304FF0FF32FFF7ABBD00BFAFF300800F
S1132EB000F076BCAFF30080AFF30080AFF3008086
S1132EC070B50E4B044682B040F8043B01260094D2
S1132ED00B461546606004F1540104F10C00A66031
S1132EE01022FFF765FC00942B4604F1300004F136
S1132EF064011022FFF774FD02B070BDA06D0000E4
S1132F0038B50D46044638B3202383F31188FEF701
S1132F10CFFEFEF78DF8A368013B012B02D91048C0
S1132F20FEF72EF82946204600F07AFC0223A3601F
S1132F30FEF78EF8FEF7C4FE0A4B1A689A4207D0D1
S1132F40996993688A689A4202D20748FEF718F88A
S1132F50002383F3118838BD0148FEF711F8D3E745
S1132F60906D000028F2FF1F806D0000AFF3008019
S1132F7000F0EEBCAFF30080AFF30080AFF300804D
S1132F800023012280E80C0083600C30FEF728BF88
S1132F9038B50D46044640B339B3202383F3118872
S1132FA0FEF786FEFEF744F82368013B012B02D9A5
S1132FB01048FDF7E5FF2046656000F0D1FC0223D0
S1132FC02360FEF745F8FEF77BFE0B4B1A689A4226
S1132FD007D0996993688A689A4202D20748FDF734
S1132FE0CFFF002383F3118838BD0248FDF7C8FFE3
S1132FF0D3E700BFD06D000028F2FF1FC06D0000B2
S113300010B5044618B3202383F31188FEF750FE4D
S1133010FEF70EF82368022B02D00F48FDF7B0FF2D
S1133020204600F035FDFEF713F8FEF749FE0B4B82
S11330301A689A4207D0996993688A689A4202D2B8
S11330400748FDF79DFF002383F3118810BD024854
S1133050FDF796FFD7E700BFE06D000028F2FF1FE1
S1133060C06D0000AFF30080AFF30080AFF30080C9
S113307010B5044618B3202383F31188FEF718FE15
S1133080FDF7D6FF2368022B02D00F48FDF778FF27
S1133090204600F005FDFDF7DBFFFEF711FE0B4BAC
S11330A01A689A4207D0996993688A689A4202D248
S11330B00748FDF765FF002383F3118810BD02481C
S11330C0FDF75EFFD7E700BFF06D000028F2FF1F99
S11330D0C06D0000AFF30080AFF30080AFF3008059
S11330E043099B0010B403F1604300F1604404F50C
S11330F0614403F56143090100F01F00012282408D
S1133100C9B284F80013C3F880211A605DF8044B37
S1133110704700BFAFF30080AFF30080AFF30080CF
S11331200849430910B4203300F01F040122084465
S1133130A240002441F8232080F800435DF8044BAA
S1133140704700BF00E100E0AFF30080AFF3008000
S11331500B2838B504460D4602D90548FDF710FF83
S113316004F1604000F56D402D01EDB2057638BDE7
S1133170006E0000AFF30080AFF30080AFF3008077
S1133180704700BFAFF30080AFF30080AFF300805F
S11331905849594BD1F888205848F0B442F4700289
S11331A04CF220564DF628154FF4E974C1F88820E6
S11331B0DE81DD811C800378D8077BD5504B9A785B
S11331C0110700F192804F4BAA2260211A701A460F
S11331D05970D378DBB2802BFBD14B4A4B4F4C4D0B
S11331E04C494D4C41F2440041F20406175010681A
S11331F020F4402040F400201060905920F4403026
S1133200905141F238060027905940F400709051D3
S1133210AA6C22F0807222F4E062AA64EA6C22F0C2
S1133220807222F4E062EA640F724A7802F09B0230
S113323042F02402012602254A70084623700E73C8
S11332400D708379334A03F0100303F0FF01002B60
S1133250F7D1D37843F0E003D370104651718379EA
S113326013F00C03FBD1284C2C4A41F23800802780
S11332702158052641F00101012521509360114692
S11332801760566015600B68244A1B06FBD51E495F
S1133290002341F2380013600B5823F0010341F27C
S11332A048020B508B5823F00F0343F002038B505A
S11332B0F0BC704714481A4B41F23C01425842F0AA
S11332C0005242501A69D2053FF57DAF1A6922F4C3
S11332D07C5242F440721A611A6942F480721A6193
S11332E01A6922F400721A616DE79A7842F00802B2
S11332F09A7068E700ED00E00020054000F0074008
S113330000D0074000E007400070044000000301C3
S11333100090044000400640005006400000044075
S113332000D00340AFF30080AFF30080AFF3008020
S1133330514B1A7812F0C00F1A7820D1510728D5B2
S11333404FF400434C4AD27802F0E002602A7CD069
S11333504FD9A02A48D06CD9C02A71D0E02A03D111
S113336040F6713202FB03F34448454941F24402FA
S11333708258120F0132B3FBF2F30B60704702F074
S1133380C002402A22D01A7802F0C002802A43D018
S113339070471B7B13F0030324D0012B394A08BF69
S11333A04FF40042344B597811F0300F2BD0197B75
S11333B001F00301012926D0197801F038013029E0
S11333C057D038294DD14FF4C06322E05A78D20740
S11333D02CD5197A2C4AC1F3420101238B40B2FB4C
S11333E0F3F3C1E7294ADDE74FF4B76202FB03F3C5
S11333F0BAE7202A31D0402A2BD0002AB4D103EBDB
S11334008303DB01B0E71C4B19780123C1F3C2012C
S11334108B40B2FBF3F395E71B7B13F0030226D03A
S1133420012A184B08BF4FF400439DE74FF40043B3
S11334309AE7802A98D14FF4377202FB03F393E79B
S113344040F6950202FB03F38EE703EB83035B0272
S11334508AE7C3EB0313DB0186E703EB83031B0259
S113346082E719782023C1F3C2018B40D1E7074BCF
S11334707AE74FF4A063CCE70040064000700440B4
S113348000F0FF1F006CDC0200093D0000127A000E
S11334900069C84000F00100704700BFAFF300802E
S11334A01F2970B50E46044615462CD862690123BF
S11334B0B340062D0CBF134322EA03036361344B6C
S11334C09C425CD040339C425BD040339C425AD0F7
S11334D040339C4259D040339C424ED02D48FDF796
S11334E04FFD0023162D0DD8DFE805F0112511201E
S11334F01B2511160C0C0C0C0C0C0C0C11423D3839
S1133500332E290070BD2348FDF73AFDCEE74FF472
S1133510807243F8262070BD4FF4907243F8262041
S113352070BD4FF4817243F8262070BD40F203123F
S113353043F8262070BD002243F8262070BD4FF4C6
S1133540E06243F8262070BD4FF4C06243F82620A1
S113355070BD4FF4A06243F8262070BD4FF4806222
S113356043F8262070BD4FF4407243F8262070BD06
S11335704FF4007243F8262070BD074BB2E7074BA7
S1133580B0E7074BAEE7074BACE7074BAAE700BF32
S113359000F00F40206E000000D004400090044072
S11335A000A0044000B0044000C00440AFF3008019
S11335B00C4941F23802F8B58B5843F478538B50D8
S11335C0064600F5257735460024E1B2306855F803
S11335D0042F0134FFF764FF202CF6D18436BE4259
S11335E0F1D1F8BD00700440AFF30080AFF3008068
S11335F010B50F4CD4F88C301B781B0600D410BDCA
S113360004F13000FFF754FA00280ADBD4F89430B0
S1133610C0B21870D4F88020137843F0800313707C
S113362010BD201D0821BDE81040FEF799BD00BF64
S113363028F3FF1FAFF30080AFF30080AFF30080E7
S11336402DE9F041524DFEF70BFBFDF749FDD5F88E
S11336508C301C78E4B2A30613D427062CD4D5F8F6
S11336608C201378DBB2DE0603D5117841F010010B
S1133670117018073CD1FDF74BFDBDE8F041FFF791
S113368047B8202383F31188FEF722FBFDF7F8FCEB
S11336906B69002B5BD0D5F894303E481978FFF75E
S11336A097F8002858DBFDF703FDFEF719FB00230C
S11336B083F311882706D2D54FF0200888F31188A8
S11336C0334EFEF705FBFDF7DBFC06F13000FFF798
S11336D0EFF900270446FDF7EBFCFEF701FB87F347
S11336E01188BC423DDBD6F89430E4B21C70B6E7D6
S11336F013F0080F0CBF00248024D90748BF44F0FE
S113370020049A0748BF44F040045B0748BF44F4D0
S11337108074202383F31188FEF7DAFAFDF7B0FCF6
S113372021461D48FEF71CFDFDF7C2FCFEF7D8FA42
S1133730002383F31188D5F88C20137843F00F030A
S11337401370FDF7E5FCBDE8F041FEF7E1BF281D6D
S11337500421FEF705FD9EE70F488021FEF700FDDA
S1133760A1E788F31188FEF7B3FAFDF789FC301D51
S11337700821FEF7F5FCFDF79BFCFEF7B1FA87F391
S11337801188D6F88020137803F07F03137066E75E
S113379028F3FF1F34F3FF1F2CF3FF1FAFF3008048
S11337A0F8B5134C134A144F144E154D20460021FE
S11337B0FFF786FB134A144BDFF858C0DFF858E0D4
S11337C01248134962670022C4F87CC0C4F880E040
S11337D0C4F88470C4F88860C4F88C50C4F89000AD
S11337E0C4F89410C4F89820A367C4F89C30F8BDBA
S11337F028F3FF1FF13500000BA0024003A0024094
S113380006A0024001A0024000A0024007A002401E
S11338100CA0024008A002400AA00240AFF30080BE
S1133820274A8368002908BF1146012B00D070473E
S1133830244B9842FBD170B4234CD3F88C0041F252
S11338403C0641F20405A25942F48062A251625935
S113385022F0406242F0806262510278940605D5FB
S1133860D3F89440227802789206FBD4D3F88040AF
S11338701648227802F0F30222705C6F0A682178FD
S113388002EB021201F0E001B0FBF2F2C2F30420F9
S113389001432170996FD2B20A70DA6F002111705E
S11338A0D3F884200F211170D3F88020137843F0CB
S11338B02C0313701E200C2170BCFFF711BC00BF39
S11338C0406E000028F3FF1F00700440806514065A
S11338D038B51A4CFEF7C4F9FDF702FCE369184841
S11338E0184A61680025C5771A60DA6AD86A0968D7
S11338F00243DA62F1B10423236020468847236837
S1133900042B17D0202383F31188FEF7E1F9FDF788
S1133910B7FB0D480021FEF7C3F8FDF7C9FBFEF71E
S1133920DFF9002383F31188FDF7F2FBBDE838408B
S1133930FEF7EEBE02232360E4E700BFC8F3FF1FD7
S11339400080004001000080D0F3FF1FAFF300802F
S11339500148FFF715BB00BFC8F3FF1FAFF300809A
S11339602DE9F84F0368012B01D0BDE8F88F3E4BD9
S1133970984268D0044608210020FFF7B1FB3B4F72
S1133980DFF800E13A4B3B48DFF8FCC03A4D3B4ED0
S113399041F23C014FF00F087A5842F002027A508B
S11339A0DEF80020902742F00202CEF80020C3F88F
S11339B02C8007704770E269D268C2F3C362013297
S11339C0082A94BF00220122002A41F2080B14BFE6
S11339D00220012041F2180941F22C0841F2300E74
S11339E041F2380741F20C0A606243F80B000020F0
S11339F043F80A0043F8090043F8080043F80EC0EE
S1133A00D85141F228092E60646A43F8094092B201
S1133A1041F20408150241F2060C41F2260E41F26D
S1133A201C0741F234062A434FF008090A2423F8FC
S1133A30019023F8080023F80C2023F80E20DC530F
S1133A409853BDE8F88F094C45680D4A41F23C0192
S1133A50635843F400536350EB68C2610BB1D36005
S1133A6088E74FF03E43FAE7C8F3FF1F00700440B5
S1133A7000800040001002400090004038D0024016
S1133A8000D002404080044034D00240AFF30080B4
S1133A90436819895A6801238B409360704700BFBB
S1133AA0436819895A6801238B405360704700BFEB
S1133AB038B5036C90F83C109A78044690060FD5FC
S1133AC0DA78D20609D5A26842F00202A260DA7856
S1133AD042F01002DA70216C03E0DA78150635D46E
S1133AE019468A7942F040028A71DA7842F0020279
S1133AF0DA70A368ABB994F83C508DB9202383F3F2
S1133B001188FEF7E5F8FDF7BBFA04F11C0029461D
S1133B10FDF7C6FFFDF7CCFAFEF7E2F885F311884E
S1133B2038BD202383F31188FEF7D2F8FDF7A8FAF5
S1133B3004F11C006FF00101FDF7B2FFFDF7B8FAC4
S1133B40FEF7CEF8002383F31188D4E79A78D006E1
S1133B501AD40229C4D1626B012A0AD9A16B023A90
S1133B6091429A780CBF42F0080202F0F7029A7070
S1133B70626BA16B013A914237D04A1CA263226B5B
S1133B8018795054216CACE7012914D00229A7D12B
S1133B90DA78D2071ED49A7802F0EF029A70626B38
S1133BA0012A9A788CBF02F0F70242F008029A7058
S1133BB01A79216C95E7DA78D1070BD4616A79B167
S1133BC0E26AA06A82420BD2501CE0628A5C1A71DB
S1133BD0216C86E7A26842F00402A260194680E7DD
S1133BE0002284F83C2019467BE79A7802F0CF0241
S1133BF09A700022A16B84F83C20BEE7AFF30080EA
S1133C00F0B50746A1B014496846802202F020FDB1
S1133C107B68F3B11C68114BB3FBF4F4A4B200232A
S1133C209E46ADF102054FF6FF7035F8021F0A1BE0
S1133C30A142DEB292B203F1010303D382423CBF3C
S1133C401046B646402BF0D13B6C83F801E021B01E
S1133C50F0BD40F2DF14E2E7506800000040DC02EF
S1133C6008B5FDF7FDFFFDF73BFA0448FFF720FF19
S1133C70FDF74EFABDE80840FEF74ABDF8F3FF1F12
S1133C8008B5FDF7EDFFFDF72BFA0448FFF710FF29
S1133C90FDF73EFABDE80840FEF73ABD3CF4FF1FCD
S1133CA070B5084D084C2846FEF7DAFF0026074B8E
S1133CB02B642046EE61FEF7D3FF054BE6612364D7
S1133CC070BD00BFF8F3FF1F3CF4FF1F0060064007
S1133CD000700640AFF30080AFF30080AFF30080C4
S1133CE00368012B10B504460CD02046FFF788FF6B
S1133CF0236CC0229A70226C12210023D17084F8A4
S1133D003C3010BD0E4B98420ED00E4B9842ECD175
S1133D100D4941F2340219208B5843F080038B5033
S1133D200321FFF7DDF9E0E7074941F234021820E7
S1133D308B5843F040038B500221FFF7D1F9D4E7AD
S1133D40F8F3FF1F3CF4FF1F00700440AFF3008042
S1133D502DE9F04704460E466262A362216C089B7B
S1133D60099F84F8206000220120A260E262A2631D
S1133D7084F83C00236367638B7943F040038B71C1
S1133D80236C1222DA70236C9A7891062FD59A78D4
S1133D9042F014029A707600236C0A99F6B204F188
S1133DA01C051E712846FDF75BFEC8B9089BBBB114
S1133DB0B7B1A36B9F4213D9226C937843F00403E9
S1133DC0937094F82030226C5B0043F001030221CD
S1133DD0DBB284F83C1028460A991371FDF740FEC3
S1133DE0226C937803F0CF039370BDE8F087DFF87B
S1133DF09080FDF72DF9FDF763FFD8F800304345B7
S1133E0005D0D8F818209B6892689A422FD30023D3
S1133E1083F311881A4DD8F828A04FF0200917E031
S1133E20D8F82830CAEB0303312B24D8FDF710F956
S1133E30FDF746FF2B68AB4207D0AA699B689268DE
S1133E409A4202D20F48FDF79BF8002383F31188AE
S1133E5089F31188FDF72CFFFDF7EAF8236CDA7873
S1133E609206DDD49A7842F030029A7093E70548BE
S1133E70FDF786F8CBE74FF0FF30BDE8F08700BFD1
S1133E8028F2FF1F506E0000AFF30080AFF30080F4
S1133E902DE9F041FDF7E4FEFDF722F9124B134F33
S1133EA0D3F8A060DFF848804FF0FF32C3F8A020B9
S1133EB00024012502E00134142C0ED005FA04F389
S1133EC03342F8D0E15DD8F80430094803EB01131C
S1133ED001345B689847142CF0D1FDF719F9BDE85B
S1133EE0F041FEF715BC00BF00900440B4F4FF1F7E
S1133EF080F4FF1FAFF30080AFF30080AFF30080C6
S1133F002DE9F041FDF7ACFEFDF7EAF8124B134F33
S1133F10D3F8A060DFF848804FF0FF32C3F8A02048
S1133F200024012502E00134142C0ED005FA04F318
S1133F303342F8D0E15DD8F80430094803EB0113AB
S1133F4001345B689847142CF0D1FDF7E1F8BDE823
S1133F50F041FEF7DDBB00BF00A00440A0F4FF1F4A
S1133F6080F4FF1FAFF30080AFF30080AFF3008055
S1133F702DE9F041FDF774FEFDF7B2F8124B134F33
S1133F80D3F8A060DFF848804FF0FF32C3F8A020D8
S1133F900024012502E001340C2C0ED005FA04F3B0
S1133FA03342F8D0E15DD8F80430094803EB01133B
S1133FB001345B6898470C2CF0D1FDF7A9F8BDE8F3
S1133FC0F041FEF7A5BB00BF00B0044094F4FF1F0E
S1133FD080F4FF1FAFF30080AFF30080AFF30080E5
S1133FE02DE9F041FDF73CFEFDF77AF8124B134F33
S1133FF0D3F8A060DFF848804FF0FF32C3F8A02068
S11340000024012502E00134082C0ED005FA04F343
S11340103342F8D0E15DD8F80430094803EB0113CA
S113402001345B689847082CF0D1FDF771F8BDE8BE
S1134030F041FEF76DBB00BF00C004408CF4FF1FCD
S113404080F4FF1FAFF30080AFF30080AFF3008074
S113405010B5FDF705FEFDF743F8144BD3F8A04067
S11340604FF0FF32C3F8A020E20707D4A3070FD410
S1134070FDF74EF8BDE81040FEF74ABB0C4B0D4867
S11340801978436803EB01135B689847A307EFD5DE
S11340900848074B5978436803EB01135B6898475A
S11340A0FDF736F8BDE81040FEF732BB00D00440FF
S11340B088F4FF1F80F4FF1FAFF30080AFF300808C
S11340C00148FEF7BDBD00BF80F4FF1FAFF30080C1
S11340D008B5FDF7C5FDFDF703F8202383F3118828
S11340E0FDF7F6FDFCF7CCFFFCF752FFFCF7E0FF11
S11340F0FDF7F6FD002383F31188FDF709F8BDE809
S11341000840FEF705BB00BFAFF30080AFF30080AB
S1134110054B064A5A600021072299600B201A6059
S11341200821FFF715B800BF10E000E0E8760100B1
S113413008B5FFF72DF8BDE80840FFF7F9B800BF50
S1134140704700BFAFF30080AFF30080AFF300808F
S1134150F0B400F10B07002B08BF0B463D46B1FB42
S1134160F2F602FB161101F13004392CC8BF01F13B
S11341703704E4B205F8014DB3FBF2F33146002BEA
S1134180EDD17B1B034401E015F8014F00F8014B0E
S11341909842F9D1F0BC7047AFF30080AFF30080D0
S11341A02DE9F04F2DED028B994B8FB01B680D93C9
S11341B017460DF11D0307AA9B1A01930023064617
S11341C00D460093824629786B1C71B1252918D0BD
S11341D0009CDAF800201D46926850460134009491
S11341E0904729786B1C0029F0D1894B0D9A1B68E4
S11341F000989A4240F0E0810FB0BDEC028BBDE81C
S1134200F08F6A782D2A03BFAA78AB1C01260026FA
S1134210302A03BF5A7801334FF030094FF0200998
S1134220591C4FF0000807E03B78043708EB880876
S11342302A7803EB48080131A2F13003DBB2092BE1
S11342400D46F3D92A2AEFD02E2A4FF0000B45D081
S113425002F0DF034C2B4ED0A2F14401342900F2CA
S11342606F81DFE811F054016D016D016D016D0185
S113427054016D016D016D016D016D0127016D0129
S11342806D016D016D016D015C016D016D016A01CE
S11342906D016D016D016D016D016D016D016D01AA
S11342A06D016D015E0154016D01D9006D016D0157
S11342B054016D016D016D016D016D0127016D01E9
S11342C06D016D0189006D015C016D016D016A0173
S11342D03B7804370BEB8B0B03EB4B0B15F8012BE3
S11342E0A2F13003DBB2092BF4D92A2AF0D002F070
S11342F0DF034C2BB0D12B78002B00F02181A3F1EC
S113430044020135342A00F21A81DFE812F0000178
S113431018011801180118010001180118011801E9
S113432018011801D3001801180118011801180107
S113433008011801180116011801180118011801C3
S11343401801180118011801180118010A010001C7
S1134350180185001801180100011801180118013D
S113436018011801D30018011801180135001801AB
S113437008011801180116013C68264B002C08BFDF
S11343801C4604372378BBF1000F00F0F680002BA5
S113439000F0F8800BF1FF3B204602E0BBF1010B7B
S11343A003D410F8013F002BF8D1001BC0EB080820
S11343B000F1FF3B4FF0200928EAE878002E00F0D6
S11343C08C80BBF1000F11DB5E46DAF8003014F884
S11343D0011B9B68013E50469847731CF5D1009B16
S11343E00133BBF1000FA8BF5B440093B8F1000F89
S11343F03FF4E9AE4446DAF8003050469B6849463B
S11344009847013CF7D1009B43440093DBE600BF8F
S113441034F0FF1F00710000073727F00707D7E9C2
S11344200001FCF7A5FC08EE100AB5EEC08AF1EE17
S113443010FA07F1080700F1AD8007A80BF1FF3B64
S1134440FDEEC87ABBF1080F28BF4FF0080B5B4C98
S1134450CDED027A17EE901A0A22002354F82B406D
S1134460FFF776FE83462E230BF8013B18EE100A65
S1134470FCF7EAF9CDE904010298FCF7D3F9024606
S11344800B46DDE90401FCF77FF8CDE90201204683
S1134490FCF7B8F902460B46DDE90201FCF728FAFD
S11344A0FCF73EFC464BA3FB04230146DB085846BD
S11344B00A2204E00822396807A804370023FFF71A
S11344C047FE07ABC01A00F1FF3B1C46C0EB0808CF
S11344D028EAE878002E7FF474AFC8F10006002EB5
S11344E036D021782D2939D0B046DAF8003050463C
S11344F09B684946984718F10108F6D1009BBBF127
S1134500000FA3EB06030093BFF65EAF5BE63968CA
S1134510002907F1040745DB07A80A22CEE70A228F
S1134520C9E73B688DF81C30019B0437184603F13A
S1134530FF3B4FF0200907ACC8E71022BBE71A463F
S1134540019B8DF81C20184603F1FF3B07ACBDE727
S1134550BBF1000FB046BFF637AF34E6B9F1300F08
S1134560C2D1DAF8003050469B689847009B01336B
S1134570013400930BF1FF3BB6E747F6FE7B002BBB
S11345807FF40AAF28EAE8789EB94FF0FF3B4FF07A
S11345902009A2E72D23B1EE488A8DF81C300DF1D5
S11345A01D004BE72D2349428DF81C300DF11D00F1
S11345B0B3E74FF0200919E700F012FE1071000074
S11345C0CDCCCCCCAFF30080AFF30080AFF3008050
S11345D00EB400B582B003AA52F8041B0192FFF78F
S11345E0DFFD02B05DF804EB03B07047AFF3008069
S11345F038B50D4620B308600246117820291446C8
S113460002F10102F9D00929F7D0222920D029B3D7
S11346102029234619D0092904D116E0202814D0D2
S1134620092812D013F8010F0028F7D1286018B117
S1134630411C002229600270237823B1204638BD32
S113464008680028D8D1002038BD18462860EEE755
S11346501046144602F034F82860E8E70846E5E717
S1134660002800F085802DE9F0418468C768BC42C9
S113467071D090E80050234600261CF80350013501
S11346802B447345A8BFCEEB0303BB4206F10106DE
S1134690F3D1012A45D0D0F810E076455DDBBC4269
S11346A060D0731E9E455CD090E80011002501E0A7
S11346B0734530D018F8043001331C44644505F1C7
S11346C00105A8BFCCEB0404EB43BC423344EFD157
S11346D018F80740BCB10EF10103064603614022FD
S11346E008468846002101F0C3FF73683A199A42CC
S11346F01FDA3168013739444046224601F0A8FFE9
S11347002046BDE8F081012A27D10EF1010303619F
S11347102046BDE8F081274618F80740002CDAD17E
S1134720F1E70369002B20DDA3F1020EC0F810E0CD
S1134730B3E7DB1B31685D1E013739442A46404626
S113474001F086FF08EB0500621B316801F080FF71
S11347502046BDE8F08100269BE74FF0FF30BDE81E
S1134760F0812746D0F80080B2E70020BDE8F08150
S11347704FF0FF30704700BFAFF30080AFF300800D
S1134780014B1B60704700BFC8F4FF1FAFF30080EC
S11347902DE9F04F013A89468BB04A448DE80C006C
S11347A0046802904FF0000ACB46D04623682046A6
S11347B05B680DF11F0101229847002800F0D180A9
S11347C09DF81F101B2930D0B8F1000F0ED05B29C3
S11347D042D0BAF1000FE8D0412900F0C680422946
S11347E000F0FB804FF0000AD046DFE708291FD015
S11347F07F291DD00D2900F0088109292FD00E2909
S113480000F0D080102900F0F2801F29CED9009B3F
S11348109B45CBD2236820469B6898479DF81F3060
S11348208BF800300BF1010BC0E74FF00108BDE736
S1134830CB45BBD0236820469B6898472368204615
S11348409B682021984723689DF81F109B68204689
S11348500BF1FF3B9847A9E74FF0010AA6E7009B3D
S11348609B45A3D2B54B8BF8008093E8030008ADB9
S113487008908DF824102846494601F039FF029A21
S1134880536817690393A842AD4B08BF38601D688D
S113489008BF04376DB11E462846494601F028FF7B
S11348A0854208BF3D6056F8085F08BF0437002DF5
S11348B0F2D1039B7BB11D686DB11E462846494663
S11348C001F016FF854208BF3D6056F8085F08BF37
S11348D00437002DF2D1029B00223A601F69D7F8F9
S11348E000C0C9EB0B03194603936546BCF1000FE6
S11348F03FF45CAF7B68002B00F03E819CF80060C5
S1134900002E00F01881381DCDF81080DDF80080ED
S1134910CDF80CB0DE460594BC460C4683462F46C3
S11349209D5CB54208D159460BB908E03BB151F83A
S1134930043F985CA842F9D0002B40F0C180F045B8
S113494007D9944205DC8EF80060DCF800700EF1A3
S1134950010E0132BE5C002E00F0C180DCF8043090
S1134960DEE701200BB0BDE8F08F01984946002234
S1134970FFF776FE051E7FF735AF46220423714903
S11349802046FFF725FE70492046FFF721FE4FF031
S1134990000A20466D494A4609EB050BFFF718FE4D
S11349A0D04603E7019849460122FFF759FE051E48
S11349B025D189F800804622042320466149FFF767
S11349C007FE20466049FFF703FE20465F494A463A
S11349D009EB050BFFF7FCFDE8E6019849460122C7
S11349E0FFF73EFE051E0DD189F80050C5E701987A
S11349F049464246FFF734FE051EDCDCD6E6FFF6E8
S1134A00D5AED8E7FFF6EEAEB7E720465049FFF73C
S1134A10DFFD019BC9EB0B04002B4BD05A68531EDE
S1134A209C4247DA631E09EB030119F803002028AE
S1134A300AD1002C03DC3DE0002B3BD0013B11F8F4
S1134A40010D20281C46F7D0002C33DD019E306870
S1134A50B368F56808E08C4210DBC15C0B44013399
S1134A609A4200DC9B1AB360E91A5F1BC943AB424C
S1134A70114407F1FF37EEDDBC42EEDA521B561E3D
S1134A80B4426BDA013528444946224601F0E0FD80
S1134A900199CB680A68D454CB684A68013423442A
S1134AA09342CB6001DB9B1ACB6001980168002222
S1134AB0CA54026100208BF800000BB0BDE8F08FEF
S1134AC0DDF80CB0DDF81080059C104600239A42F6
S1134AD009F8003048447FF769AE064608E0DDF87F
S1134AE00CB0DDF81080059C09F8026009EB0206A1
S1134AF0029A176915687B682846002B61D014490F
S1134B00FFF766FD3A683AB128461249FFF760FD9F
S1134B1057F8042F002AF7D10D492846FFF758FD0E
S1134B200D492846FFF754FD284608494A46FFF731
S1134B304FFDB3463AE689F8006037E6607100003D
S1134B4004F0FF1F407100004C7100005071000020
S1134B50A07700005C7100005471000001354946E3
S1134B603246284401F074FD019B09EB0601A21BA7
S1134B70186801F06DFD8BE7604601F0B1FD09EBAB
S1134B800006B34525D229465B466FEA0B0EDDF8D5
S1134B900CC0009A054602E0934218D039680133EC
S1134BA019446144B34211F80E1003F8011CF3D107
S1134BB000998B422A4689D2421C20231046337026
S1134BC084E75A460449FFF703FDB346EEE52A4657
S1134BD07CE75E46F0E700BF50710000AFF3008051
S1134BE02DE9F047564B82681B685649DFF86CA1E3
S1134BF09CB090E840021B93002313708468C26841
S1134C0008938046304609930A9306940792FFF767
S1134C10DFFC30464C49FFF7DBFC4C493046FFF7DC
S1134C20D7FC40460BA9402206ABFFF7B1FD80BB81
S1134C3069460BA8FFF7DCFC69460746002001AD76
S1134C400024FFF7D5FC50B1042C1BD045F8040B0D
S1134C50694600200134FFF7CBFC0028F4D11CABDB
S1134C6003EB840343F86C0C002FD6D03846384944
S1134C70FCF7CEF888B930461CB33649344AFFF7FE
S1134C80A7FCCAE730463449FFF7A2FC002305938A
S1134C90C3E76420FCF7B4FECAE7DAF80000002892
S1134CA032D02E4D02E055F8080F68B33946FCF7B0
S1134CB0AFF80028F7D16B682146304601AA98471F
S1134CC0ABE72749FFF784FCDAF8002042B1234C14
S1134CD024493046FFF77CFC54F8082F002AF7D10A
S1134CE0B9F1000F0BD0D9F8002042B14C46304640
S1134CF01C49FFF76DFC54F8082F002AF7D1304601
S1134D001049FFF765FC88E7B9F1000F0DD0D9F819
S1134D10000050B14D4602E055F8080F28B139465D
S1134D20FCF776F80028F7D1C5E73A4630460E4935
S1134D30FFF74EFC30460D49FFF74AFC6DE700BF14
S1134D4034F0FF1FA0770000687100005471000068
S1134D5060710000947100007C71000004F0FF1F7A
S1134D60A0710000B071000050710000B471000027
S1134D70012903D00349044AFFF72ABC12680349F6
S1134D80FFF726BC9471000000720000107200004E
S1134D90002903DD19491A4AFFF71ABC10B519494D
S1134DA0194A82B00446FFF713FC20461749184AF3
S1134DB0FFF70EFC20461749174AFFF709FC204667
S1134DC01649174AFFF704FC20461649164AFFF70E
S1134DD0FFFB20461549164AFFF7FAFB2046154902
S1134DE0154AFFF7F5FB154B009320461449154A65
S1134DF0154BFFF7EDFB02B010BD00BF947100002E
S1134E001872000020720000347200003C7200002E
S1134E10507200005C720000707200007C7200002E
S1134E20907200009C720000B0720000C872000012
S1134E30DC720000E4720000F872000038730000B5
S1134E40107300002873000034730000AFF3008077
S1134E50002903DD1849194AFFF7BABB2DE9F043CD
S1134E601749DFF86490DFF8648087B00746FFF7DE
S1134E70AFFBFCF73DFF044694F8200094F8225061
S1134E80A16959F82060A068E269E36802900029EA
S1134E9008BF4146013D049100940A4901950396D7
S1134EA03846FFF795FB2046FCF74AFF04460028E6
S1134EB0E2D107B0BDE8F0839471000044730000B0
S1134EC04C7300008C730000C07100002C7500004E
S1134ED030B5002983B005DD1249134AFFF778FB8A
S1134EE003B030BD0446694601AA0020FDF788FBE3
S1134EF00546FDF765FA0D4902462046FFF768FBB3
S1134F002A4620460A49FFF763FB009A09492046CE
S1134F10FFF75EFB20460849019AFFF759FB03B0EF
S1134F2030BD00BF94710000B4730000B87300007A
S1134F30D8730000F073000010740000AFF3008019
S1134F40002903DD1349144AFFF742BB70B520233F
S1134F50054683F31188114CFCF7AAFEFCF768F8A8
S1134F60A66AFCF775F8FCF7ABFE2368A34207D0EA
S1134F70A2699B6892689A4202D20948FCF700F839
S1134F80002383F31188074928463246BDE8704060
S1134F90FFF71EBB947100003074000028F2FF1F5D
S1134FA0E074000038740000AFF30080AFF30080B9
S1134FB070B51A4D1A4AAB691A489A611A491B4EC0
S1134FC001224FF0FF33FDF733F8AB69184A93F829
S1134FD0213016605A071CD44FF0FF30FDF710F94A
S1134FE0134C01462046FDF7DBF8AB6993F82130FA
S1134FF05B07F1D52368B3420BD0202383F31188D8
S1135000FCF756FEFCF714F80020BDE87040FCF7EE
S11350106FBC04480449FDF743F8EEE728F2FF1F8C
S1135020107500006C050020CCF4FF1F015D00002A
S1135030C0010020AFF30080AFF30080AFF3008025
S1135040F0B583B0FDF794FB374A384B9168384E7E
S1135050384D394C41F020019160D16841F0200174
S1135060D1609A6A42F020029A62DA6A42F020021F
S1135070DA62FBF72DFF314B314932484FF480722D
S1135080022777605A60FDF73BFF2F482F4FFDF74B
S1135090E7FD2D482E49FDF7EBFD00F051FE2D49AB
S11350A02D48FDF775FF2C4800F062FA2A48FDF7F9
S11350B0DFFFFFF765FB29492248FFF789FA284BF0
S11350C028491A681F48FFF783FAFDF779F926493A
S11350D002461C48FFF77CFA244A254B126000263E
S11350E04FF42761042200962248FE60FCF730FB4F
S11350F0214B186000F08CFB2048FDF7B1FD1F48E0
S11351001F49FDF7B5FD4FF417611E4A0095812331
S113511001940020FDF7ACF8FCF72AFC4FF47A70F8
S1135120FCF76EFCEFE700BF00A0044000B00440B1
S113513040F00F40E14B0000C075000080F00F40CC
S11351409075000028F3FF1FF8F3FF1F700500207F
S11351500075000080750000C8F3FF1F287500006B
S113516038F0FF1F30750000547500006C050020F6
S1135170B14F000050F7FF1F400200203CF4FF1F16
S1135180F074000074750000AFF30080AFF300808A
S1135190034BEFF3098295461A6000BEFEE700BF99
S11351A044020020AFF30080AFF30080AFF300802F
S11351B0FEE700BFAFF30080AFF30080AFF30080E1
S11351C0FEE700BFAFF30080AFF30080AFF30080D1
S11351D0FEE700BFAFF30080AFF30080AFF30080C1
S11351E008B50248FBF7CCFEFEE700BFA07500003F
S11351F030B583B002AC056804F8011D134621469E
S11352000122AC69A04703B030BD00BFAFF30080FA
S11352102DE9F041026882B0D5690C461E460DF1B5
S1135220020101224FF47A730746A84701285ED190
S11352309DF80220013A172A59D8DFE802F05510E8
S1135240580C585858585858585858585858585826
S113525058585858580C002002B0BDE8F0814FF45B
S1135260806802A9002321F8043D3B683846DD69C3
S113527002224FF47A73A847022838D19DF80420FB
S113528006B1327052B29DF90530D24393422ED109
S11352903B683846DD69214642464FF4FA73A84715
S11352A00646002ED8DB4FF000038DF8033023D0E0
S11352B0214626441D4611F8014B2B19B142DDB29B
S11352C0F9D13B683846DC690DF1030101224FF442
S11352D0FA73A0470028BFDB9DF80330AB4206D128
S11352E0404602B0BDE8F0814FF08008B9E74FF0C6
S11352F0FF3002B0BDE8F0813546E2E7AFF300804D
S113530030B5002987B0054646DD14682849204693
S113531001F0B6F90346A8B12046264901F0B0F9D8
S113532030B1284622462449FFF752F907B030BD70
S1135330224C4FF48025A5600120FCF761FB6560D9
S113534007B030BD81221E488DF810308DF8112031
S1135350FDF73EFD05A901224FF0FF338DE80E0055
S113536017483C2104AA0223FDF7D2FC0446144842
S1135370FDF746FD3CB9284612499DF81420FFF775
S113538027F907B030BD1048FDF7B2FC0F490246BB
S11353902846FFF71DF9EEE70D49FFF719F92846EE
S11353A00C49FFF715F928460B49FFF711F9BDE73A
S11353B0E4760000387700004077000000F00F40EA
S11353C03CF4FF1F08770000F8F3FF1FE8760000A5
S11353D090760000A8760000C4760000AFF3008049
S11353E0F0B58FB00EAD1C4F00243B6805F8284D76
S11353F006461A480D93FDF7EBFC05A820214FF053
S1135400FF338DE80B002A46282101231348FDF7BA
S11354107FFC1248FDF7F4FC0DF1130508E001349C
S113542030460F4915F8012FFFF7D2F8202C07D08A
S11354306307F4D130460B492246FFF7C9F8EEE77B
S113544030460949FFF7C4F80D9A3B689A4201D1E6
S11354500FB0F0BDFFF7C4FE34F0FF1FF8F3FF1FD9
S11354606C77000060770000A0770000AFF3008045
S113547030B5022987B01446054602D01649FFF715
S1135480A7F800210A46206801F0D2F900210A4653
S11354908DF81400606801F0CBF98DF815000F4801
S11354A0FDF796FC04A900224FF0FF338DE80E00AF
S11354B00A4805AA02232821FDF72AFC04460748C6
S11354C0FDF79EFCB4FA84F2284605495209FFF719
S11354D07FF807B030BD00BF74770000F8F3FF1FFA
S11354E0B0770000AFF30080AFF30080AFF300802B
S11354F030B5012987B01446054602D01449FFF798
S113550067F800210A46206801F092F906AC04F815
S1135510080D1048FDF75CFC012305A84FF0FF318E
S11355208DE80900224602910A482821FDF7F0FB84
S113553004460848FDF764FCB4FA84F32846064997
S11355409DF814205B09FFF743F807B030BD00BF96
S113555090770000F8F3FF1FA4770000AFF30080FA
S11355600149FFF735B800BFC0770000AFF30080F2
S113557010B504460120FDF7D3FDE369024A1A6021
S11355804FF03E42DA6010BD000C0080AFF30080A3
S113559030B4C5690024A1B1EB6A9B010FD58C42DC
S11355A00FD2B4B9137843F004436B63C569013473
S11355B0AB68B4EB134FFBD1EB6A9B01EFD4A14270
S11355C0EAD8AB68B1EB134FFBD1A86830BC000C30
S11355D07047135D43F00043E7E700BFAFF300807B
S11355E0F0B5144D85B0044617461E462B68039348
S11355F0FDF706FD394632462046FFF7C9FF0E493E
S113560002460E48FEF7E4FF082101AA2046FFF7F0
S1135610BFFF0B4902460948FEF7DAFF2046FDF7B3
S113562027FD039A2B689A4201D105B0F0BDFFF71C
S1135630D7FD00BF34F0FF1FD077000028F3FF1F11
S1135640EC770000AFF30080AFF30080AFF300808D
S11356502DE9F04F002985B005467BDD14684349E8
S1135660204601F00DF80646D0B12046404901F02D
S113567007F80646284636B122463E49FEF7A8FFFB
S113568005B0BDE8F08F3C493C4AFEF7A1FF314626
S11356903B483A4A3B4BFFF7A3FF05B0BDE8F08F08
S11356A039483A4DDFF8EC901521C822FFF7A0FDE8
S11356B03746B046AA462968334849444FF48072B5
S11356C00DF10F03FFF7A4FDB0F1000B2E483BDBF7
S11356D00621C822FFF78CFDBBF1000F32D1DAF8A6
S11356E00020B2F5807F0CD82948013AA0F58073D8
S11356F01A44FF2102F8011F8242FBD140F2011239
S11357002A6001249DF80FC0B7F5FA7FA8BF0124D1
S1135710C44505D02A685A44FF2A2A6003D8E046C3
S1135720002CC8D0ACE71B4B1548CDF804C031465B
S1135730FFF756FFDDF804C000230136CAF8003035
S1135740E046EDE70024DDE71521C8220137FFF725
S11357504FFDB0E71049FEF73BFF28460F49FEF71F
S113576037FF28460E49FEF733FF89E770780000BB
S1135770307600004077000074780000DC7D000083
S1135780C8F3FF1F4080000028F3FF1F68040020B7
S11357906C0500206C040020147800002C780000B4
S11357A04C780000AFF30080AFF30080AFF30080CB
S11357B010B483B016230478417882788DF80140C0
S11357C08DF802108DF803208DF800301A466946D2
S11357D00DF1030400235340DBB2082213F0800FC1
S11357E04FEA4303DBB202F1FF3218BF83F0070331
S11357F012F0FF02F2D1A1428DF8043002D011F868
S1135800012FE8E7C37003B05DF8044B704700BF95
S113581030B5104C87B01523204600258DF8143080
S1135820FDF7D6FA05A801238DF815308DF816502A
S1135830FFF7BEFF4FF0FF3305AA02930B210423A9
S1135840009501952046FDF763FA2046FDF7D8FA46
S113585007B030BDF8F3FF1FAFF30080AFF3008053
S11358602DE9F041002986B0064640F320811568F1
S1135870A749284600F004FF002846D02846A54939
S113588000F0FEFE002800F0A6802846A24900F0A1
S1135890F7FE002860D1044605AF0DF1100823E09F
S11358A09E488DF81440FDF793FA03224FF0FF331E
S11358B001920293CDF80080012398480B213A46C7
S11358C01C44FDF725FA05469448FDF799FA9DB95D
S11358D09DF811509DF81020914942EA0522304666
S11358E0FEF776FE1B2C6FD0A307D9D130468D4925
S11358F02246FEF76DFED3E78848FDF7F9F98A4999
S113590002463046FEF764FEE2E706AC112304F8D3
S1135910043D8248FDF75CFA04A803214FF0FF33ED
S11359208DE80B0022467D480B210123FDF7F0F999
S113593004467A48FDF764FA002C40F0A6809DF8EE
S113594011209DF810307949304643EA0222FEF7CF
S11359503FFE06B0BDE8F0812846754900F090FE90
S11359600446002800F09A802846724900F088FE18
S11359700446002840F0B380152368488DF814309D
S1135980FDF726FA05A802238DF816408DF8153088
S1135990FFF70EFF4FF0FF3300940194029305AA22
S11359A05E480B210423FDF7B3F904465B48FDF779
S11359B027FA002CCDD05948FDF79AF95A490246E6
S11359C03046FEF705FEC4E730465B49FEF700FEAD
S11359D006B0BDE8F08106AF0F2307F8043D4F4839
S11359E0FDF7F6F90DF1100803214FF0FF33019193
S11359F002933A46CDF8008048480B210123FDF775
S1135A0087F904464548FDF7FBF9002C76D19DF84B
S1135A1011209DF8103043EA022307EE903AF8EE85
S1135A20E77AB2EE047AC7EE877A17EE900AFAF7AD
S1135A300BFF02460B4630464049FEF7C9FD0923D9
S1135A4036488DF81430FDF7C3F903214FF0FF33C6
S1135A5001910293CDF800803A4630480B2101238E
S1135A60FDF756F904462D48FDF7CAF9002C3CD140
S1135A709DF811209DF810303149304643EA022246
S1135A80FEF7A6FD06B0BDE8F0812448FDF730F925
S1135A90254902463046FEF79BFD50E715231F4873
S1135AA08DF81430FDF794F905A801236CE7254916
S1135AB0FEF78EFD30462449FEF78AFD3046234921
S1135AC0FEF786FD30462249FEF782FD3046214925
S1135AD0FEF77EFD30462049FEF77AFD39E7304671
S1135AE02A461E49FEF774FD33E70C48FDF700F91A
S1135AF00D4902463046FEF76BFDB9E70748FDF74E
S1135B00F7F8094902463046FEF762FD7FE700BF19
S1135B10E47600005479000084790000F8F3FF1F54
S1135B208C79000060770000E8760000447900007A
S1135B309479000098790000A0770000587900005B
S1135B407479000090780000A8780000C8780000FC
S1135B50E87800000879000024790000407700000C
S1135B6070B582B002AA104C104DFF2302F8013D1B
S1135B7001212046FFF70CFD4FF480262046FDF757
S1135B803FFAAE600120FBF73BFF6E600120FBF79C
S1135B9037FF2046FDF76CFA20460021044A054BE6
S1135BA0FFF71EFD02B070BDC8F3FF1F40F00F40A9
S1135BB0DC7D000040800000AFF30080AFF3008084
S1135BC030B5002983B0054646DD14682A492046CD
S1135BD000F056FD28B32046284900F051FD78B165
S1135BE02046274900F04CFD30B12846224625497D
S1135BF0FEF7EEFC03B030BDFFF7B2FF03B030BDDB
S1135C0028462149FEF7E4FC0C212048FDF740FC1E
S1135C1001280CBF1E491F492846FEF7D9FC03B0D2
S1135C2030BD02AAFF2302F8013D01211A4C1B4892
S1135C30FFF7AEFC4FF480251848FDF7E1F9A560A5
S1135C400120FBF7DDFE65600120FBF7D9FE134858
S1135C50FDF70EFA03B030BD1149FEF7B9FC284632
S1135C601049FEF7B5FC28460F49FEF7B1FC28465B
S1135C700E49FEF7ADFCBDE738770000107A00004E
S1135C803C7A000040770000187A000000F00F40D2
S1135C902C7A0000347A000040F00F40C8F3FF1F54
S1135CA0A0790000B8790000D4790000F4790000EC
S1135CB008B5202383F31188FCF70AF8FBF7E0F911
S1135CC00C480021FCF74CFAFBF73AFA0A48C3687F
S1135CD00BB1FBF795FA0848084A4FF47A71002390
S1135CE0FBF75EFAFBF7E4F9FBF7FAFF002383F313
S1135CF0118808BD6C05002070050020B15C00000F
S1135D0030B50E4C87B000252046C0238DF81530E1
S1135D108DF81450FDF75CF84FF0FF336A2105AAA3
S1135D2002930095022301952046FCF7F1FF2046DB
S1135D30FDF766F8FFF76CFD07B030BDF8F3FF1F01
S1135D4010B50E4C86B00622204660238DF8142030
S1135D508DF81530FDF73CF800234FF0FF32009327
S1135D60019302926A2105AA02232046FCF7D0FF80
S1135D702046FDF745F806B010BD00BFF8F3FF1F3D
S1135D802DE9F041002986B0044640F3618316688A
S1135D907349304600F074FC002851D030467149F4
S1135DA000F06EFC00286DD030466F4900F068FCAE
S1135DB0002800F0838230466C4900F061FC0546FF
S1135DC0002800F0CC823046694900F059FC0346B3
S1135DD0002800F0E1803046664900F051FC0028BC
S1135DE040F09A83054605AE04AF08E020466249B8
S1135DF09DF81020FEF7ECFB072D00F0A9825F4808
S1135E008DF81450FCF7E4FF01234FF0FF320292A7
S1135E100097019359486A2132461D44FCF778FFE4
S1135E2080465648FCF7ECFFB8F1000FDED053482B
S1135E30FCF75EFF524902462046FEF7C9FBD5E750
S1135E4006AD032305F8043D4C48FCF7C1FF04A844
S1135E5001234FF0FF312A468DE80900029147489B
S1135E606A21FCF755FF05464448FCF7C9FF002D9D
S1135E706CD1204643499DF81020FEF7A9FB06B0DB
S1135E80BDE8F08106AE012506F8045D3B48FCF749
S1135E909FFF04AF4FF0FF3101952B46029132462C
S1135EA0009736486A21FCF733FF05463348FCF770
S1135EB0A7FF002D40F0F1829DF810302F4823F009
S1135EC0040301228DF815308DF81420FCF780FFAF
S1135ED000214FF0FF330191029300973246274887
S1135EE06A210223FCF714FF05462448FCF788FFC7
S1135EF0002D40F0C982202383F31188FBF7D8FEDC
S1135F00FBF796F8FBF71CF91F48C3680BB1FBF7C6
S1135F1077F91D481D4A4FF47A710023FBF740F9C5
S1135F20FBF796F8FBF7CCFE194B1A689A4207D098
S1135F30996993688A689A4202D21648FBF720F856
S1135F40002383F3118806B0BDE8F0810B48FCF709
S1135F50CFFE0B4902462046FEF73AFB89E700BF15
S1135F60E4760000507B0000587B0000607B00005A
